{
  "_format": "hh-sol-artifact-1",
  "contractName": "MockAggregator",
  "sourceName": "contracts/MockAggregator.sol",
  "abi": [
    {
      "inputs": [
        {
          "internalType": "int256",
          "name": "initialPrice",
          "type": "int256"
        }
      ],
      "stateMutability": "nonpayable",
      "type": "constructor"
    },
    {
      "inputs": [],
      "name": "decimals",
      "outputs": [
        {
          "internalType": "uint8",
          "name": "",
          "type": "uint8"
        }
      ],
      "stateMutability": "pure",
      "type": "function"
    },
    {
      "inputs": [],
      "name": "latestRoundData",
      "outputs": [
        {
          "internalType": "uint80",
          "name": "roundId",
          "type": "uint80"
        },
        {
          "internalType": "int256",
          "name": "answer",
          "type": "int256"
        },
        {
          "internalType": "uint256",
          "name": "startedAt",
          "type": "uint256"
        },
        {
          "internalType": "uint256",
          "name": "updatedAt",
          "type": "uint256"
        },
        {
          "internalType": "uint80",
          "name": "answeredInRound",
          "type": "uint80"
        }
      ],
      "stateMutability": "view",
      "type": "function"
    }
  ],
  "bytecode": "0x608060405234801561001057600080fd5b506040516102733803806102738339818101604052810190610032919061007a565b80600081905550506100a7565b600080fd5b6000819050919050565b61005781610044565b811461006257600080fd5b50565b6000815190506100748161004e565b92915050565b6000602082840312156100905761008f61003f565b5b600061009e84828501610065565b91505092915050565b6101bd806100b66000396000f3fe608060405234801561001057600080fd5b50600436106100365760003560e01c8063313ce5671461003b578063feaf968c14610059575b600080fd5b61004361007b565b60405161005091906100c2565b60405180910390f35b610061610084565b604051610072959493929190610134565b60405180910390f35b60006008905090565b6000806000806000806000546000426000945094509450945094509091929394565b600060ff82169050919050565b6100bc816100a6565b82525050565b60006020820190506100d760008301846100b3565b92915050565b600069ffffffffffffffffffff82169050919050565b6100fc816100dd565b82525050565b6000819050919050565b61011581610102565b82525050565b6000819050919050565b61012e8161011b565b82525050565b600060a08201905061014960008301886100f3565b610156602083018761010c565b6101636040830186610125565b6101706060830185610125565b61017d60808301846100f3565b969550505050505056fea2646970667358221220fbda4f1780db5e1aff84a7d897c9330264576500c58aade2de258ed24542c42b64736f6c63430008110033",
  "linkReferences": {},
  "deployedLinkReferences": {}
}